{
  "_format": "hh-sol-artifact-1",
  "contractName": "BuyMeACoffee",
  "sourceName": "contracts/BuyMeACoffee.sol",
  "abi": [
    {
      "inputs": [],
      "stateMutability": "nonpayable",
      "type": "constructor"
    },
    {
      "anonymous": false,
      "inputs": [
        {
          "indexed": true,
          "internalType": "address",
          "name": "from",
          "type": "address"
        },
        {
          "indexed": false,
          "internalType": "uint256",
          "name": "timestamp",
          "type": "uint256"
        },
        {
          "indexed": false,
          "internalType": "string",
          "name": "name",
          "type": "string"
        },
        {
          "indexed": false,
          "internalType": "string",
          "name": "message",
          "type": "string"
        },
        {
          "indexed": false,
          "internalType": "bool",
          "name": "isLargeCoffee",
          "type": "bool"
        }
      ],
      "name": "NewMemo",
      "type": "event"
    },
    {
      "inputs": [
        {
          "internalType": "string",
          "name": "_name",
          "type": "string"
        },
        {
          "internalType": "string",
          "name": "_message",
          "type": "string"
        }
      ],
      "name": "buyMeACoffee",
      "outputs": [],
      "stateMutability": "payable",
      "type": "function"
    },
    {
      "inputs": [
        {
          "internalType": "address",
          "name": "newWithdrawalAddress",
          "type": "address"
        }
      ],
      "name": "changeWithdrawalAddress",
      "outputs": [],
      "stateMutability": "nonpayable",
      "type": "function"
    },
    {
      "inputs": [],
      "name": "getMemos",
      "outputs": [
        {
          "components": [
            {
              "internalType": "address",
              "name": "from",
              "type": "address"
            },
            {
              "internalType": "uint256",
              "name": "timestamp",
              "type": "uint256"
            },
            {
              "internalType": "string",
              "name": "name",
              "type": "string"
            },
            {
              "internalType": "string",
              "name": "message",
              "type": "string"
            },
            {
              "internalType": "bool",
              "name": "isLargeCoffee",
              "type": "bool"
            }
          ],
          "internalType": "struct BuyMeACoffee.Memo[]",
          "name": "",
          "type": "tuple[]"
        }
      ],
      "stateMutability": "view",
      "type": "function"
    },
    {
      "inputs": [],
      "name": "withdrawTips",
      "outputs": [],
      "stateMutability": "nonpayable",
      "type": "function"
    }
  ],
  "bytecode": "0x608060405234801561001057600080fd5b5033600160006101000a81548173ffffffffffffffffffffffffffffffffffffffff021916908373ffffffffffffffffffffffffffffffffffffffff16021790555033600260006101000a81548173ffffffffffffffffffffffffffffffffffffffff021916908373ffffffffffffffffffffffffffffffffffffffff160217905550610d7b806100a26000396000f3fe60806040526004361061003f5760003560e01c80631f4e2a53146100445780633aaa74b21461006d578063865c517214610084578063db136f6d146100af575b600080fd5b34801561005057600080fd5b5061006b600480360381019061006691906106ff565b6100cb565b005b34801561007957600080fd5b5061008261019f565b005b34801561009057600080fd5b50610099610201565b6040516100a6919061099d565b60405180910390f35b6100c960048036038101906100c49190610728565b6103ff565b005b600160009054906101000a900473ffffffffffffffffffffffffffffffffffffffff1673ffffffffffffffffffffffffffffffffffffffff163373ffffffffffffffffffffffffffffffffffffffff161461015b576040517f08c379a0000000000000000000000000000000000000000000000000000000008152600401610152906109df565b60405180910390fd5b80600260006101000a81548173ffffffffffffffffffffffffffffffffffffffff021916908373ffffffffffffffffffffffffffffffffffffffff16021790555050565b600260009054906101000a900473ffffffffffffffffffffffffffffffffffffffff1673ffffffffffffffffffffffffffffffffffffffff166108fc479081150290604051600060405180830381858888f193505050506101ff57600080fd5b565b60606000805480602002602001604051908101604052809291908181526020016000905b828210156103f657838290600052602060002090600502016040518060a00160405290816000820160009054906101000a900473ffffffffffffffffffffffffffffffffffffffff1673ffffffffffffffffffffffffffffffffffffffff1673ffffffffffffffffffffffffffffffffffffffff168152602001600182015481526020016002820180546102b890610b98565b80601f01602080910402602001604051908101604052809291908181526020018280546102e490610b98565b80156103315780601f1061030657610100808354040283529160200191610331565b820191906000526020600020905b81548152906001019060200180831161031457829003601f168201915b5050505050815260200160038201805461034a90610b98565b80601f016020809104026020016040519081016040528092919081815260200182805461037690610b98565b80156103c35780601f10610398576101008083540402835291602001916103c3565b820191906000526020600020905b8154815290600101906020018083116103a657829003601f168201915b505050505081526020016004820160009054906101000a900460ff16151515158152505081526020019060010190610225565b50505050905090565b66038d7ea4c6800034148061041a5750660aa87bee53800034145b610459576040517f08c379a0000000000000000000000000000000000000000000000000000000008152600401610450906109bf565b60405180910390fd5b6000660aa87bee53800034141561046f57600190505b60006040518060a001604052803373ffffffffffffffffffffffffffffffffffffffff168152602001428152602001858152602001848152602001831515815250908060018154018082558091505060019003906000526020600020906005020160009091909190915060008201518160000160006101000a81548173ffffffffffffffffffffffffffffffffffffffff021916908373ffffffffffffffffffffffffffffffffffffffff1602179055506020820151816001015560408201518160020190805190602001906105469291906105df565b5060608201518160030190805190602001906105639291906105df565b5060808201518160040160006101000a81548160ff02191690831515021790555050503373ffffffffffffffffffffffffffffffffffffffff167ff60127f6e3d9514ff255ca311cafcaa77c5fb238e6ba211cf77f8684d318c868428585856040516105d294939291906109ff565b60405180910390a2505050565b8280546105eb90610b98565b90600052602060002090601f01602090048101928261060d5760008555610654565b82601f1061062657805160ff1916838001178555610654565b82800160010185558215610654579182015b82811115610653578251825591602001919060010190610638565b5b5090506106619190610665565b5090565b5b8082111561067e576000816000905550600101610666565b5090565b600061069561069084610a77565b610a52565b9050828152602081018484840111156106ad57600080fd5b6106b8848285610b56565b509392505050565b6000813590506106cf81610d2e565b92915050565b600082601f8301126106e657600080fd5b81356106f6848260208601610682565b91505092915050565b60006020828403121561071157600080fd5b600061071f848285016106c0565b91505092915050565b6000806040838503121561073b57600080fd5b600083013567ffffffffffffffff81111561075557600080fd5b610761858286016106d5565b925050602083013567ffffffffffffffff81111561077e57600080fd5b61078a858286016106d5565b9150509250929050565b60006107a08383610902565b905092915050565b6107b181610b0e565b82525050565b60006107c282610ab8565b6107cc8185610adb565b9350836020820285016107de85610aa8565b8060005b8581101561081a57848403895281516107fb8582610794565b945061080683610ace565b925060208a019950506001810190506107e2565b50829750879550505050505092915050565b61083581610b20565b82525050565b61084481610b20565b82525050565b600061085582610ac3565b61085f8185610aec565b935061086f818560208601610b65565b61087881610c59565b840191505092915050565b600061088e82610ac3565b6108988185610afd565b93506108a8818560208601610b65565b6108b181610c59565b840191505092915050565b60006108c9604283610afd565b91506108d482610c6a565b606082019050919050565b60006108ec602383610afd565b91506108f782610cdf565b604082019050919050565b600060a08301600083015161091a60008601826107a8565b50602083015161092d602086018261097f565b5060408301518482036040860152610945828261084a565b9150506060830151848203606086015261095f828261084a565b9150506080830151610974608086018261082c565b508091505092915050565b61098881610b4c565b82525050565b61099781610b4c565b82525050565b600060208201905081810360008301526109b781846107b7565b905092915050565b600060208201905081810360008301526109d8816108bc565b9050919050565b600060208201905081810360008301526109f8816108df565b9050919050565b6000608082019050610a14600083018761098e565b8181036020830152610a268186610883565b90508181036040830152610a3a8185610883565b9050610a49606083018461083b565b95945050505050565b6000610a5c610a6d565b9050610a688282610bca565b919050565b6000604051905090565b600067ffffffffffffffff821115610a9257610a91610c2a565b5b610a9b82610c59565b9050602081019050919050565b6000819050602082019050919050565b600081519050919050565b600081519050919050565b6000602082019050919050565b600082825260208201905092915050565b600082825260208201905092915050565b600082825260208201905092915050565b6000610b1982610b2c565b9050919050565b60008115159050919050565b600073ffffffffffffffffffffffffffffffffffffffff82169050919050565b6000819050919050565b82818337600083830152505050565b60005b83811015610b83578082015181840152602081019050610b68565b83811115610b92576000848401525b50505050565b60006002820490506001821680610bb057607f821691505b60208210811415610bc457610bc3610bfb565b5b50919050565b610bd382610c59565b810181811067ffffffffffffffff82111715610bf257610bf1610c2a565b5b80604052505050565b7f4e487b7100000000000000000000000000000000000000000000000000000000600052602260045260246000fd5b7f4e487b7100000000000000000000000000000000000000000000000000000000600052604160045260246000fd5b6000601f19601f8301169050919050565b7f43616e6e6f742062757920636f666665652e204e6f726d616c20636f6666656560008201527f20636f73747320302e303031206574682c206c6172676520302e30303320657460208201527f6821000000000000000000000000000000000000000000000000000000000000604082015250565b7f596f752063616e2774206368616e6765207769746864726177616c206164647260008201527f6573730000000000000000000000000000000000000000000000000000000000602082015250565b610d3781610b0e565b8114610d4257600080fd5b5056fea26469706673582212209b93507fcff9c10d81b540c756732133eb2db1a1f4bdf66803639a7396cfed4164736f6c63430008040033",
  "linkReferences": {},
  "deployedLinkReferences": {}
}