{
  "_format": "hh-sol-artifact-1",
  "contractName": "BuyMeACoffee",
  "sourceName": "contracts/BuyMeACoffee.sol",
  "abi": [
    {
      "inputs": [],
      "stateMutability": "nonpayable",
      "type": "constructor"
    },
    {
      "anonymous": false,
      "inputs": [
        {
          "indexed": true,
          "internalType": "address",
          "name": "from",
          "type": "address"
        },
        {
          "indexed": false,
          "internalType": "uint256",
          "name": "timestamp",
          "type": "uint256"
        },
        {
          "indexed": false,
          "internalType": "string",
          "name": "name",
          "type": "string"
        },
        {
          "indexed": false,
          "internalType": "string",
          "name": "message",
          "type": "string"
        },
        {
          "indexed": false,
          "internalType": "bool",
          "name": "isLargeCoffee",
          "type": "bool"
        }
      ],
      "name": "NewMemo",
      "type": "event"
    },
    {
      "inputs": [
        {
          "internalType": "string",
          "name": "_name",
          "type": "string"
        },
        {
          "internalType": "string",
          "name": "_message",
          "type": "string"
        }
      ],
      "name": "buyMeACoffee",
      "outputs": [],
      "stateMutability": "payable",
      "type": "function"
    },
    {
      "inputs": [
        {
          "internalType": "string",
          "name": "_name",
          "type": "string"
        },
        {
          "internalType": "string",
          "name": "_message",
          "type": "string"
        }
      ],
      "name": "buyMeALargeCoffee",
      "outputs": [],
      "stateMutability": "payable",
      "type": "function"
    },
    {
      "inputs": [
        {
          "internalType": "address",
          "name": "newWithdrawalAddress",
          "type": "address"
        }
      ],
      "name": "changeWithdrawalAddress",
      "outputs": [],
      "stateMutability": "nonpayable",
      "type": "function"
    },
    {
      "inputs": [],
      "name": "getMemos",
      "outputs": [
        {
          "components": [
            {
              "internalType": "address",
              "name": "from",
              "type": "address"
            },
            {
              "internalType": "uint256",
              "name": "timestamp",
              "type": "uint256"
            },
            {
              "internalType": "string",
              "name": "name",
              "type": "string"
            },
            {
              "internalType": "string",
              "name": "message",
              "type": "string"
            },
            {
              "internalType": "bool",
              "name": "isLargeCoffee",
              "type": "bool"
            }
          ],
          "internalType": "struct BuyMeACoffee.Memo[]",
          "name": "",
          "type": "tuple[]"
        }
      ],
      "stateMutability": "view",
      "type": "function"
    },
    {
      "inputs": [],
      "name": "withdrawTips",
      "outputs": [],
      "stateMutability": "nonpayable",
      "type": "function"
    }
  ],
  "bytecode": "0x608060405234801561001057600080fd5b5033600160006101000a81548173ffffffffffffffffffffffffffffffffffffffff021916908373ffffffffffffffffffffffffffffffffffffffff16021790555033600260006101000a81548173ffffffffffffffffffffffffffffffffffffffff021916908373ffffffffffffffffffffffffffffffffffffffff160217905550610f36806100a26000396000f3fe60806040526004361061004a5760003560e01c80631f4e2a531461004f5780633aaa74b214610078578063865c51721461008f578063caf15aea146100ba578063db136f6d146100d6575b600080fd5b34801561005b57600080fd5b50610076600480360381019061007191906108ba565b6100f2565b005b34801561008457600080fd5b5061008d6101c6565b005b34801561009b57600080fd5b506100a4610228565b6040516100b19190610b58565b60405180910390f35b6100d460048036038101906100cf91906108e3565b610426565b005b6100f060048036038101906100eb91906108e3565b6105e0565b005b600160009054906101000a900473ffffffffffffffffffffffffffffffffffffffff1673ffffffffffffffffffffffffffffffffffffffff163373ffffffffffffffffffffffffffffffffffffffff1614610182576040517f08c379a000000000000000000000000000000000000000000000000000000000815260040161017990610b9a565b60405180910390fd5b80600260006101000a81548173ffffffffffffffffffffffffffffffffffffffff021916908373ffffffffffffffffffffffffffffffffffffffff16021790555050565b600260009054906101000a900473ffffffffffffffffffffffffffffffffffffffff1673ffffffffffffffffffffffffffffffffffffffff166108fc479081150290604051600060405180830381858888f1935050505061022657600080fd5b565b60606000805480602002602001604051908101604052809291908181526020016000905b8282101561041d57838290600052602060002090600502016040518060a00160405290816000820160009054906101000a900473ffffffffffffffffffffffffffffffffffffffff1673ffffffffffffffffffffffffffffffffffffffff1673ffffffffffffffffffffffffffffffffffffffff168152602001600182015481526020016002820180546102df90610d53565b80601f016020809104026020016040519081016040528092919081815260200182805461030b90610d53565b80156103585780601f1061032d57610100808354040283529160200191610358565b820191906000526020600020905b81548152906001019060200180831161033b57829003601f168201915b5050505050815260200160038201805461037190610d53565b80601f016020809104026020016040519081016040528092919081815260200182805461039d90610d53565b80156103ea5780601f106103bf576101008083540402835291602001916103ea565b820191906000526020600020905b8154815290600101906020018083116103cd57829003601f168201915b505050505081526020016004820160009054906101000a900460ff1615151515815250508152602001906001019061024c565b50505050905090565b660aa87bee538000341461046f576040517f08c379a000000000000000000000000000000000000000000000000000000000815260040161046690610b7a565b60405180910390fd5b60006040518060a001604052803373ffffffffffffffffffffffffffffffffffffffff16815260200142815260200184815260200183815260200160011515815250908060018154018082558091505060019003906000526020600020906005020160009091909190915060008201518160000160006101000a81548173ffffffffffffffffffffffffffffffffffffffff021916908373ffffffffffffffffffffffffffffffffffffffff16021790555060208201518160010155604082015181600201908051906020019061054792919061079a565b50606082015181600301908051906020019061056492919061079a565b5060808201518160040160006101000a81548160ff02191690831515021790555050503373ffffffffffffffffffffffffffffffffffffffff167ff60127f6e3d9514ff255ca311cafcaa77c5fb238e6ba211cf77f8684d318c86842848460016040516105d49493929190610bba565b60405180910390a25050565b66038d7ea4c680003414610629576040517f08c379a000000000000000000000000000000000000000000000000000000000815260040161062090610b7a565b60405180910390fd5b60006040518060a001604052803373ffffffffffffffffffffffffffffffffffffffff16815260200142815260200184815260200183815260200160001515815250908060018154018082558091505060019003906000526020600020906005020160009091909190915060008201518160000160006101000a81548173ffffffffffffffffffffffffffffffffffffffff021916908373ffffffffffffffffffffffffffffffffffffffff16021790555060208201518160010155604082015181600201908051906020019061070192919061079a565b50606082015181600301908051906020019061071e92919061079a565b5060808201518160040160006101000a81548160ff02191690831515021790555050503373ffffffffffffffffffffffffffffffffffffffff167ff60127f6e3d9514ff255ca311cafcaa77c5fb238e6ba211cf77f8684d318c868428484600060405161078e9493929190610bba565b60405180910390a25050565b8280546107a690610d53565b90600052602060002090601f0160209004810192826107c8576000855561080f565b82601f106107e157805160ff191683800117855561080f565b8280016001018555821561080f579182015b8281111561080e5782518255916020019190600101906107f3565b5b50905061081c9190610820565b5090565b5b80821115610839576000816000905550600101610821565b5090565b600061085061084b84610c32565b610c0d565b90508281526020810184848401111561086857600080fd5b610873848285610d11565b509392505050565b60008135905061088a81610ee9565b92915050565b600082601f8301126108a157600080fd5b81356108b184826020860161083d565b91505092915050565b6000602082840312156108cc57600080fd5b60006108da8482850161087b565b91505092915050565b600080604083850312156108f657600080fd5b600083013567ffffffffffffffff81111561091057600080fd5b61091c85828601610890565b925050602083013567ffffffffffffffff81111561093957600080fd5b61094585828601610890565b9150509250929050565b600061095b8383610abd565b905092915050565b61096c81610cc9565b82525050565b600061097d82610c73565b6109878185610c96565b93508360208202850161099985610c63565b8060005b858110156109d557848403895281516109b6858261094f565b94506109c183610c89565b925060208a0199505060018101905061099d565b50829750879550505050505092915050565b6109f081610cdb565b82525050565b6109ff81610cdb565b82525050565b6000610a1082610c7e565b610a1a8185610ca7565b9350610a2a818560208601610d20565b610a3381610e14565b840191505092915050565b6000610a4982610c7e565b610a538185610cb8565b9350610a63818560208601610d20565b610a6c81610e14565b840191505092915050565b6000610a84604283610cb8565b9150610a8f82610e25565b606082019050919050565b6000610aa7602383610cb8565b9150610ab282610e9a565b604082019050919050565b600060a083016000830151610ad56000860182610963565b506020830151610ae86020860182610b3a565b5060408301518482036040860152610b008282610a05565b91505060608301518482036060860152610b1a8282610a05565b9150506080830151610b2f60808601826109e7565b508091505092915050565b610b4381610d07565b82525050565b610b5281610d07565b82525050565b60006020820190508181036000830152610b728184610972565b905092915050565b60006020820190508181036000830152610b9381610a77565b9050919050565b60006020820190508181036000830152610bb381610a9a565b9050919050565b6000608082019050610bcf6000830187610b49565b8181036020830152610be18186610a3e565b90508181036040830152610bf58185610a3e565b9050610c0460608301846109f6565b95945050505050565b6000610c17610c28565b9050610c238282610d85565b919050565b6000604051905090565b600067ffffffffffffffff821115610c4d57610c4c610de5565b5b610c5682610e14565b9050602081019050919050565b6000819050602082019050919050565b600081519050919050565b600081519050919050565b6000602082019050919050565b600082825260208201905092915050565b600082825260208201905092915050565b600082825260208201905092915050565b6000610cd482610ce7565b9050919050565b60008115159050919050565b600073ffffffffffffffffffffffffffffffffffffffff82169050919050565b6000819050919050565b82818337600083830152505050565b60005b83811015610d3e578082015181840152602081019050610d23565b83811115610d4d576000848401525b50505050565b60006002820490506001821680610d6b57607f821691505b60208210811415610d7f57610d7e610db6565b5b50919050565b610d8e82610e14565b810181811067ffffffffffffffff82111715610dad57610dac610de5565b5b80604052505050565b7f4e487b7100000000000000000000000000000000000000000000000000000000600052602260045260246000fd5b7f4e487b7100000000000000000000000000000000000000000000000000000000600052604160045260246000fd5b6000601f19601f8301169050919050565b7f43616e6e6f742062757920636f666665652e204e6f726d616c20636f6666656560008201527f20636f73747320302e303031206574682c206c6172676520302e30303320657460208201527f6821000000000000000000000000000000000000000000000000000000000000604082015250565b7f596f752063616e2774206368616e6765207769746864726177616c206164647260008201527f6573730000000000000000000000000000000000000000000000000000000000602082015250565b610ef281610cc9565b8114610efd57600080fd5b5056fea2646970667358221220de47cbecebd22c4e17f1f57d578d9fb015610835bd98b88f4706cb8c6b3a95cd64736f6c63430008040033",
  "linkReferences": {},
  "deployedLinkReferences": {}
}